{
  "contractName": "ApprovalContract",
  "abi": [
    {
      "inputs": [],
      "name": "approver",
      "outputs": [
        {
          "internalType": "address",
          "name": "",
          "type": "address"
        }
      ],
      "stateMutability": "view",
      "type": "function",
      "constant": true
    },
    {
      "inputs": [],
      "name": "receiver",
      "outputs": [
        {
          "internalType": "address payable",
          "name": "",
          "type": "address"
        }
      ],
      "stateMutability": "view",
      "type": "function",
      "constant": true
    },
    {
      "inputs": [],
      "name": "sender",
      "outputs": [
        {
          "internalType": "address",
          "name": "",
          "type": "address"
        }
      ],
      "stateMutability": "view",
      "type": "function",
      "constant": true
    },
    {
      "inputs": [
        {
          "internalType": "address payable",
          "name": "_receiver",
          "type": "address"
        }
      ],
      "name": "deposit",
      "outputs": [],
      "stateMutability": "payable",
      "type": "function",
      "payable": true
    },
    {
      "inputs": [],
      "name": "viewApprover",
      "outputs": [
        {
          "internalType": "address",
          "name": "",
          "type": "address"
        }
      ],
      "stateMutability": "pure",
      "type": "function",
      "constant": true
    },
    {
      "inputs": [],
      "name": "approve",
      "outputs": [],
      "stateMutability": "nonpayable",
      "type": "function"
    }
  ],
  "bytecode": "0x608060405234801561001057600080fd5b5061042b806100206000396000f3fe6080604052600436106100555760003560e01c806312424e3f1461005a578063141a8dd81461007157806367e404ce1461009c578063d93ce89c146100c7578063f340fa01146100f2578063f7260d3e1461010e575b600080fd5b34801561006657600080fd5b5061006f610139565b005b34801561007d57600080fd5b506100866101f0565b6040516100939190610340565b60405180910390f35b3480156100a857600080fd5b506100b1610208565b6040516100be9190610340565b60405180910390f35b3480156100d357600080fd5b506100dc61022c565b6040516100e99190610340565b60405180910390f35b61010c6004803603810190610107919061039e565b610248565b005b34801561011a57600080fd5b506101236102d9565b60405161013091906103da565b60405180910390f35b733be1b6b1c3eb7889a0d0693181a4ed86bf93c64373ffffffffffffffffffffffffffffffffffffffff163373ffffffffffffffffffffffffffffffffffffffff161461018557600080fd5b600160009054906101000a900473ffffffffffffffffffffffffffffffffffffffff1673ffffffffffffffffffffffffffffffffffffffff166108fc479081150290604051600060405180830381858888f193505050501580156101ed573d6000803e3d6000fd5b50565b733be1b6b1c3eb7889a0d0693181a4ed86bf93c64381565b60008054906101000a900473ffffffffffffffffffffffffffffffffffffffff1681565b6000733be1b6b1c3eb7889a0d0693181a4ed86bf93c643905090565b6000341161025557600080fd5b336000806101000a81548173ffffffffffffffffffffffffffffffffffffffff021916908373ffffffffffffffffffffffffffffffffffffffff16021790555080600160006101000a81548173ffffffffffffffffffffffffffffffffffffffff021916908373ffffffffffffffffffffffffffffffffffffffff16021790555050565b600160009054906101000a900473ffffffffffffffffffffffffffffffffffffffff1681565b600073ffffffffffffffffffffffffffffffffffffffff82169050919050565b600061032a826102ff565b9050919050565b61033a8161031f565b82525050565b60006020820190506103556000830184610331565b92915050565b600080fd5b600061036b826102ff565b9050919050565b61037b81610360565b811461038657600080fd5b50565b60008135905061039881610372565b92915050565b6000602082840312156103b4576103b361035b565b5b60006103c284828501610389565b91505092915050565b6103d481610360565b82525050565b60006020820190506103ef60008301846103cb565b9291505056fea264697066735822122053277b46d9015c8ad5beceaeaa15bca8432ffd241a9614f343f139981eb6226f64736f6c634300080b0033",
  "immutableReferences": {},
  "source": "// SPDX-License-Identifier: MIT\npragma solidity >=0.4.22 <0.9.0;\n\ncontract ApprovalContract {\n  address public sender;\n  address payable public receiver;\n  address constant public approver = 0x3be1b6b1c3EB7889a0d0693181A4ed86bf93c643;\n\n  function deposit(address payable _receiver) external payable {\n    require(msg.value > 0);\n    sender = msg.sender;\n    receiver = _receiver;\n  }\n\n  function viewApprover() external pure returns(address) {\n    return(approver);\n  }\n\n  function approve() external {\n    require(msg.sender == approver);\n    receiver.transfer(address(this).balance);\n  }\n}\n\n",
  "sourcePath": "/Users/matheusmmjs/Projects/personal/Dapp_first/contracts/ApprovalContract.sol",
  "compiler": {
    "name": "solc",
    "version": "0.8.11+commit.d7f03943.Emscripten.clang"
  },
  "schemaVersion": "3.4.4",
  "updatedAt": "2022-01-12T06:36:10.154Z",
  "networkType": "ethereum",
  "devdoc": {
    "kind": "dev",
    "methods": {},
    "version": 1
  },
  "userdoc": {
    "kind": "user",
    "methods": {},
    "version": 1
  }
}